:1009810054696D6572207374617274656400546991
:100991006D65722073746F707065640052656C616F
:1009A1007931204F4E0052656C617931204F4646B6
:1009B100004669727374205475726E206F6E2074D4
:1009C100686520427574746F6E20310052656C61E8
:1009D1007932204F4E0052656C617932204F464684
:1009E100002041646465642035206D696E002041FA
:1009F10064646564203135206D696E002041646452
:100A01006564203630206D696E002052656475631F
:100A110065642035206D696E0020526564756365DB
:100A210064203135206D696E0020526564756365FF
:090A310064203630206D696E006E
:100B5200012100020F000002110000021700000232
:100B62000C0001020A000002080000021300010248
:0B0B7200150001021D0001021F000120
:0C0C1D00759850758920758DFDD28E22CF
:100B7E008B228A238924AB22AA23A924120B136069
:100B8E00130524E5247002052314F9120B13FF122A
:090B9E000C2980E27F0D020C29F4
:080C29008F993099FDC2992258
:0E0C0F00438901758C4B758AFDD2A9D2AF22A4
:100BE500E4F50FF510F511F5127BFF7A09798112FD
:050BF5000B7ED28C22F2
:100BCA00C28CE4F50FF510F511F512C2A5F50C75F6
:0B0BDA000D017BFF7A09798F020B7E72
:100BA700C28CE4F50FF510F511F512F50C750D0172
:100BB700C2A5E50A700CE50B6006147005C2A022F9
:030BC700D2A02297
:03000B00020AC620
:040AC600C0E0C0D0FC
:100ACA000509E50970020508640E45087034E51049
:100ADA00643B450F700E0512E51270020511750F81
:100AEA0000751000C3E512950DE511950C4003122F
:100AFA000BA77508007509000510E5107002050FAF
:040B0A00B2A5C28D41
:050B0E00D0D0D0E03260
:100BFA00120C1D120C0FC2A5C2A6C2A7D280D281A6
:050C0A00C2A0C2A122FE
:10080000120BFAD2A0D2A130980885992185210E29
:10081000C298E514640145137016A280337519005F
:10082000F51AE519700AE51A147005E4F513F514C4
:1008300020803FE51445137039E51E6401451D70A5
:100840000AC2A0F51DF51ED2A68050E50E24BE609A
:1008500012047047C2A07BFF7A09799D120B7ED2E9
:10086000A68038D2A07BFF7A0979A7120B7EC2A698
:100870008029208008E51464014513701EE50E648C
:10088000416005E50EB442097BFF7A0979B2120B8B
:100890007ED2A0751D00751E01C2A6E50E120B2C9E
:1008A00008C84308D84408E84708F04808F953083E
:1008B000FE54090355091656092957093C58095091
:1008C0005909645A00000979C2A17BFF7A0979CDE0
:1008D000120B7ED2A7020979D2A17BFF7A0979D7C0
:1008E000120B7EC2A7020979E4F50AF50B02097919
:1008F000750A00750B01020979120BCA807B120B75
:10090000E580767405250DF50DE4350CF50C7BFFBF
:100910007A0979E28060740F250DF50DE4350CF548
:100920000C7BFF7A0979EF804D743C250DF50DE4C1
:10093000350CF50C7BFF7A0979FD803A74FB250DA7
:10094000F50D74FF350CF50C7BFF7A0A790B8026C8
:1009500074F1250DF50D74FF350CF50C7BFF7A0A4B
:10096000791A801274C4250DF50D74FF350CF50C41
:100970007BFF7A0A792A120B7EE4F50EF521020834
:01098000076F
:03000000020A3AB7
:0C0A3A00787FE4F6D8FD758124020A8163
:100B1300BB010689828A83E0225002E722BBFE02E0
:090B2300E32289828A83E4932213
:100B2C00D083D082F8E4937012740193700DA3A358
:100B3C0093F8740193F5828883E47374029368606C
:060B4C00EFA3A3A380DF6C
:100A4600020800E493A3F8E493A34003F68001F2BE
:100A560008DFF48029E493A3F85407240CC8C333B1
:100A6600C4540F4420C8834004F456800146F6DF80
:100A7600E4800B0102040810204080900B52E47EB3
:100A8600019360BCA3FF543F30E509541FFEE49375
:100A9600A360010ECF54C025E060A840B8E493A33C
:100AA600FAE493A3F8E493A3C8C582C8CAC583CA67
:100AB600F0A3C8C582C8CAC583CADFE9DEE780BE1F
:010B7D000077
:00000001FF
